:020000040000FA
:04000000FEEF17F008
:1006000000001250800B1F6E12501224266E11AE85
:100610000CEF03F00EEF03F00FEF03F026802650EF
:10062000D8B415EF03F017EF03F02BEF03F02628F3
:10063000D8A41DEF03F01FEF03F027EF03F0000E27
:100640000F6E000E106E000E116E000E126E118EE7
:10065000126A33EF03F0000E0F6E000E106E000EE4
:10066000116E000E126E1650800B1F1A16501624B3
:10067000276E15AE3EEF03F040EF03F041EF03F0BD
:1006800027802750D8B447EF03F049EF03F05DEF20
:1006900003F02728D8A44FEF03F051EF03F059EFF0
:1006A00003F0000E136E000E146E000E156E000E99
:1006B000166E158E166A65EF03F0000E136E000EAF
:1006C000146E000E156E000E166E135014101510D9
:1006D0001610D8A46EEF03F070EF03F088EF03F06C
:1006E000000E0F6E000E106E000E116E000E126ED8
:1006F000800E11127F0E12121F5012120FC00FF037
:1007000010C010F011C011F012C012F0C8EF04F0C8
:100710002650D8A48EEF03F090EF03F09AEF03F089
:10072000000E0F6E000E106E000E116E000E126E97
:10073000C8EF04F0275026C017F0186A175E000EA5
:10074000185A7F0E1724206E000E1820216E0FC03D
:100750001BF010C01CF011C01DF012C01EF0000EE6
:100760000F6E000E106E000E116E000E126E000E57
:10077000226E000E236E000E246E000E256E276A78
:10078000FAEF03F02750D8B4C8EF03F0CAEF03F034
:10079000E1EF03F0D8901B361C361D361E36D8907C
:1007A0000F3610361136123625AED9EF03F0DBEFD7
:1007B00003F0DCEF03F00F80D89022362336243686
:1007C000253613501B5C14501C5815501D581650DC
:1007D0001E58D8A0EEEF03F0F0EF03F0F9EF03F0AE
:1007E000258C13501B5E14501C5A15501D5A165060
:1007F0001E5A272A190E276400EF04F002EF04F0B6
:10080000C2EF03F01B501C101D101E10D8B40BEFCC
:1008100004F00DEF04F025EF04F0228025EF04F042
:10082000D8900F3610361136123625AE1AEF04F076
:100830001CEF04F01DEF04F00F80D8902236233611
:10084000243625362006D8A0210611AE2AEF04F062
:100850002CEF04F010EF04F0276A25AE32EF04F01D
:1008600034EF04F058EF04F0FF0E2214176EFF0E61
:100870002314186EFF0E2414196E7F0E25141A6EA1
:100880001750181019101A10D8B449EF04F04BEF94
:1008900004F04FEF04F0010E276E58EF04F00FA0A4
:1008A00054EF04F056EF04F058EF04F04BEF04F06F
:1008B0002750D8B45EEF04F060EF04F084EF04F04A
:1008C000010E0F26000E10221122122212A06BEF31
:1008D00004F06DEF04F084EF04F00FC017F010C0C7
:1008E00018F011C019F012C01AF01A341A32193265
:1008F0001832173217C00FF018C010F019C011F0DD
:100900001AC012F0204A212A21BE8FEF04F0215094
:1009100008E12028D8A08FEF04F091EF04F09CEFBD
:1009200004F0000E216E2068000E0F6E000E106E97
:10093000000E116E000E126E21BEA9EF04F02150C0
:1009400006E12004D8B0A7EF04F0A9EF04F0B6EF59
:1009500004F0000E216E000E206E000E0F6E000ED1
:10096000106E000E116E000E126E1F6A20C026F06F
:1009700026A0BDEF04F0BFEF04F0C2EF04F0118E2B
:10098000C3EF04F0119ED8902630126E7CEF03F076
:100990001200096E0950D8B4D0EF04F0D2EF04F081
:1009A000F4EF04F004BED9EF04F0D7EF04F0F4EF55
:1009B00004F001C005F002C006F003C007F004C057
:1009C00008F0051E061E071E081E052A000E062238
:1009D0000722082205C00BF006C00CF007C00DF07E
:1009E00008C00EF0FCEF04F001C00BF002C00CF0E8
:1009F00003C00DF004C00EF00150021003100410EB
:100A0000D8A405EF05F007EF05F011EF05F0000E93
:100A1000016E000E026E000E036E000E046EA2EF59
:100A200005F0960E0A6E1BEF05F00A2AD8900E32DA
:100A30000D320C320B32000E0B14056E000E0C142E
:100A4000066E000E0D14076EFE0E0E14086E055095
:100A5000061007100810D8A430EF05F032EF05F0AB
:100A600015EF05F040EF05F00A2A010E0B26000EE7
:100A70000C220D220E22D8900E320D320C320B3287
:100A8000000E0B14056E000E0C14066E000E0D14F5
:100A9000076EFF0E0E14086E0550061007100810A2
:100AA000D8A455EF05F057EF05F034EF05F05FEFF0
:100AB00005F00A06D8900B360C360D360E360DBEF4
:100AC00064EF05F066EF05F06EEF05F0020E0A60C8
:100AD0006CEF05F06EEF05F059EF05F00AB073EF1B
:100AE00005F075EF05F076EF05F00D9ED8900A320F
:100AF0000AC005F0066A076A086A05C008F0076AB6
:100B0000066A056A05500B1206500C1207500D12AA
:100B100008500E120950D8B490EF05F092EF05F08E
:100B20009AEF05F004BE99EF05F097EF05F09AEF04
:100B300005F00E8E0BC001F00CC002F00DC003F0EA
:100B40000EC004F01200FDEC08F020EC07F019ECE8
:100B500009F094EC08F0EDEC08F020EE60F010EEF7
:100B60003DF01A0EDBCFE3FFE806FCE2000E596E03
:100B7000000E586EBEEC06F0010E73EC07F05A6ED4
:100B8000080E58185910D8A4C8EF05F0CAEF05F0A0
:100B9000E2EF05F00E0E5A18D8B4D1EF05F0D3EFFE
:100BA00005F0DCEF05F00D0E5A18D8A4DAEF05F0C9
:100BB000DCEF05F01EEF06F0000E596E010E586EC8
:100BC0001EEF06F00E0E5A18D8A4E9EF05F0EBEF71
:100BD00005F0FAEF05F0595007E1070E585CD8B060
:100BE000F4EF05F0F6EF05F01EEF06F0584A592A2B
:100BF0001EEF06F00D0E5A18D8A401EF06F003EF11
:100C000006F011EF06F058505910D8B40AEF06F06C
:100C10000CEF06F01EEF06F05806D8A059061EEF9E
:100C200006F00B0E5A18D8A418EF06F01AEF06F0CB
:100C30001EEF06F0000E596E080E586E000E066E7E
:100C4000200E056E5850030DF3503D0F076E020E37
:100C5000086EE7EC07F0030E3C6E080E3B6E770E55
:100C6000E82EFED73B2EFCD73C2EFAD70000BAEF79
:100C700005F0FEEF17F02A342B34316E3150D8A432
:100C800044EF06F046EF06F050EF06F0000E286E37
:100C9000000E296E000E2A6E000E2B6EBDEF06F0C0
:100CA00028C02CF029C02DF02AC02EF02BC02FF028
:100CB000200E60EF06F0D8902F322E322D322C32DB
:100CC000E82E5BEF06F02C50306E2A8EFF0E2816B1
:100CD000FF0E2916FF0E2A16000E2B16960E315EF9
:100CE00031BE77EF06F075EF06F08DEF06F031506C
:100CF000800A970FD8B07FEF06F081EF06F083EF00
:100D000006F046EF06F0D8902B322A3229322832EC
:100D1000313E83EF06F0A5EF06F01F0E316493EF2E
:100D200006F095EF06F09DEF06F046EF06F0D8903E
:100D3000283629362A362B3631063150D8A4A3EF6F
:100D400006F0A5EF06F097EF06F03050D8B4ABEF01
:100D500006F0ADEF06F0B5EF06F02B1E2A1E291E99
:100D6000286C000E29222A222B2228C028F029C014
:100D700029F02AC02AF02BC02BF01200040E51ECEF
:100D800008F001C034F002C035F0140E136EAE0E40
:100D9000146E230E156E410E166E34C001F035C070
:100DA00002F0036A046A000EC9EC04F001C00FF0FF
:100DB00002C010F003C011F004C012F001EC03F007
:100DC0000FC028F010C029F011C02AF012C02BF07B
:100DD0003BEC06F028C039F029C03AF039C001F0E8
:100DE0003AC002F0000E046E0A0E036E1FEC08F00B
:100DF0000150300F366E39C001F03AC002F0000EDB
:100E0000046E0A0E036EADEC07F00150300F376E22
:100E1000386A000E066E100E056E360E076E020E54
:100E2000086EE7EC07F0030E336E080E326E770E95
:100E3000E82EFED7322EFCD7332EFAD70000120050
:100E4000956A9450F80B946E8290C30E036ECD0E8B
:100E5000E82EFED7032EFCD70000000E016E330EE5
:100E6000D0EC08F01B0E036E9E0EE82EFED7032E6C
:100E7000FCD700D0000E016E330ED0EC08F0A60EA9
:100E8000E82EFED700D0000E016E330ED0EC08F035
:100E900000D000D00000000E016E020ED0EC08F071
:100EA000A60EE82EFED700D0000E016E380ED0EC54
:100EB00008F0A60EE82EFED700D0000E016E010E3F
:100EC000D0EC08F0040E036E3E0EE82EFED7032E83
:100ED000FCD7000E016E0C0ED0EC08F0A60EE82E2A
:100EE000FED700D01200016E0104D8A47AEF07F0FB
:100EF0007CEF07F0A1EF07F082500F0B0F0AD8B478
:100F000084EF07F086EF07F093EF07F05B50D8B45B
:100F10008CEF07F08EEF07F093EF07F05B6A8250DB
:100F20000F0BACEF07F082500F0B0F0AD8A49BEF0A
:100F300007F09DEF07F0ABEF07F0010E5B6EABEF34
:100F400007F00150D8A4A7EF07F0A9EF07F0ABEF27
:100F500007F08FEF07F0FF0E1200000E066E000E76
:100F6000056E03500410D8B4B8EF07F0BAEF07F0DD
:100F7000E2EF07F0010E076EC2EF07F0D8900336DC
:100F80000436072A04AEC7EF07F0C9EF07F0BEEF3B
:100F900007F0D890053606360350015C045002581D
:100FA000D8A0D5EF07F0D7EF07F0DCEF07F003503C
:100FB000015E0450025A0580D89004320332072E95
:100FC000C9EF07F005C001F006C002F012000F01E2
:100FD000436B446B05C001F006C002F0B2EC08F0B0
:100FE00008C045FF460E0C6E0F0E0D6E000E0F6E04
:100FF000000E0E6E0AEF08F007500E24D96EDA6A62
:101000000E500C24E16E0F500D20E26EDFCFE7FF93
:101010000E4A0F2A0850096E0A6A09500E5C0F50DA
:10102000800A0B6E0A50800A0B58D8A01AEF08F0FD
:101030001CEF08F0FCEF07F00F014087120003508F
:101040000410D8B426EF08F028EF08F04CEF08F0B1
:10105000010E056E30EF08F0D89003360436052AED
:1010600004AE35EF08F037EF08F02CEF08F003502E
:10107000015C04500258D8A040EF08F042EF08F09D
:1010800046EF08F00350015E0450025AD890043233
:101090000332052E37EF08F001C001F002C002F064
:1010A0001200076E07C003F0D8900336D8900336BD
:1010B000C250C30B0310C26EC282C2B262EF08F00C
:1010C00064EF08F05DEF08F0C350C4CF03F0046A8A
:1010D00003C004F0036A0310056E0450066E05C0D9
:1010E00001F006C002F01200160EF66E120EF76E38
:1010F000000EF86E00EE60F010EE1BF00900F5CF68
:10110000EEFFE550E150FAE13A0EF66E120EF76E80
:10111000000EF86E0900F5CF5BF00900F5CF5CF02A
:101120005D6A0001A3EF05F0939493861F0E6F167E
:101130006F8E800E6E18D8A4A0EF08F0A2EF08F012
:1011400099EF08F0776AE10E706E1B0E716E030E58
:10115000726E0D01D46B1F0E6F166F50606A608A3D
:10116000608C120001C003F0070E0316050E046E1A
:10117000D8900336042EB8EF08F003500F01426FE9
:1011800001C003F002C004F0D89004320332D890BA
:1011900004320332D890043203320350416F1200FC
:1011A000026E01B0D6EF08F0D9EF08F08282DAEFD4
:1011B00008F0829202C083FF82848294958E82809E
:1011C00082928284829483BEE8EF08F0EAEF08F00E
:1011D000E1EF08F08290959E1200948E949CAC9C56
:1011E000AC8AAC98AC96AC84AB8EAB9CAB88B89612
:1011F000810EAF6E9E989E9A1200C08EC09AC088D3
:10120000C096C090C082C094C292C19AC198C46A6C
:10121000C36AC28012004F4E00474E00473100475C
:101220003200473300473400473500475200435FE0
:0112300000BD
:0A12320094500F09946E12000101A0
:042FFC0074EF08F076
:020000040020DA
:08000000FFFFFFFFFFFFFFFF00
:020000040030CA
:0E000000FF071F1FFF8285FF0FC00FE00F409C
:00000001FF
