:020000040000FA
:0400000007EF00F016
:100008002082B7ED00F05AEF02F037EC02F0000E54
:100018001B6E000E1A6E000E196E000E186EE50E9D
:10002800036E2F0E046E800E056E91EC01F01A0E11
:10003800096E130E0A6E180E0B6E48EC01F0100EC6
:100048001A181B10D8A42BEF00F02DEF00F037EF93
:1000580000F0156A130E036E046AC00E056E91EC6B
:1000680001F013EF00F0200E1A181B10D8A43FEF70
:1000780000F041EF00F04BEF00F0156A130E036E2D
:10008800046AC40E056E91EC01F013EF00F0300E17
:100098001A181B10D8A453EF00F055EF00F063EFC7
:1000A80000F01850130FD96EDA6ADF6A130E036E68
:1000B800046AC70E056E91EC01F013EF00F0500EC4
:1000C8001A181B10D8A46BEF00F06DEF00F013EFB7
:1000D80000F0310E1318D8A474EF00F076EF00F09A
:1000E80085EF00F08180000E1F6E010E1E6EF50E6A
:1000F800036E2F0E046ECD0E056E91EC01F013EF1A
:1001080000F0320E1318D8A48CEF00F08EEF00F038
:100118009CEF00F0000E1F6E020E1E6EF80E036EAE
:100128002F0E046ECD0E056E91EC01F013EF00F06A
:10013800300E1318D8A4A3EF00F0A5EF00F0B3EF2A
:1001480000F0000E1F6E000E1E6EFB0E036E2F0ECB
:10015800046ECD0E056E91EC01F013EF00F013EF75
:1001680000F007EF00F00600F2A4BDEF00F0BFEFCB
:1001780000F046EF01F0080ED624D66E000ED72008
:10018800D76E1C4A1D2A1E041F10D8A4CEEF00F0FB
:10019800D0EF00F001EF01F0110E1C5C270E1D5886
:1001A800D8B0D9EF00F0DBEF00F0DFEF00F081907E
:1001B800819245EF01F0210E1C5C4E0E1D58D8B0FF
:1001C800E8EF00F0EAEF00F0EEEF00F081808182C6
:1001D80045EF01F0210E1C5C4E0E1D58D8A0F7EF1C
:1001E80000F0F9EF00F0FFEF00F0000E1D6E000EBA
:1001F8001C6E45EF01F045EF01F0020E1E181F10AE
:10020800D8A409EF01F00BEF01F036EF01F0110E61
:100218001C5C270E1D58D8B014EF01F016EF01F042
:100228001AEF01F0819E819C45EF01F0210E1C5CC4
:100238004E0E1D58D8B023EF01F025EF01F029EF3D
:1002480001F0818E818C45EF01F0210E1C5C4E0E71
:100258001D58D8A032EF01F034EF01F0FFEF00F0A5
:10026800F9EF00F01E501F10D8A43DEF01F03FEF4A
:1002780001F045EF01F081908192819C819EF9EF18
:1002880000F0F2942092110060AE4DEF01F04FEFB4
:1002980001F08CEF01F0E4EC01F00950D96EDA6A54
:1002A80001C0DEFF02C0DDFF0B50D96EDA6A65CFF0
:1002B800DFFF660E0F6E0F0E106E000E126E000E30
:1002C800116E75EF01F011500F24D96E12501020E5
:1002D800DA6E0A501124E16EE26ADFCFE7FF114AB5
:1002E800122A0B50D96EDA6ADF500C6E0D6A0C5068
:1002F800115C1250800A0E6E0D50800A0E58D8A05C
:1003080088EF01F08AEF01F067EF01F0609EA4909A
:100318000B50D96EDA6ADF6A1200000E016E0550C2
:10032800C7EC01F0AEEF01F0010E016E03C0F6FF5D
:1003380004C0F7FFF86A050EF76403D00800F5500B
:1003480005D0F6CFE1FFF7CFE2FFE750C7EC01F0A9
:10035800034A042A03C0F6FF04C0F7FFF86A050E33
:10036800F76403D00800F55005D0F6CFE1FFF7CFCA
:10037800E2FFE7500009D8A4C4EF01F0C6EF01F08E
:1003880098EF01F01200026E01B0CDEF01F0D0EF4E
:1003980001F08282D1EF01F0829202C083FF828451
:1003A8008294958E828082928284829483BEDFEFCB
:1003B80001F0E1EF01F0D8EF01F08290959E120074
:1003C8006150036E046AD89003360436D890033619
:1003D8000436D890033604366238E842070B070B18
:1003E800056E066A03500510076E04500610086E65
:1003F80007C001F008C002F01200939493861F0E04
:100408006F166F8E800E6E18D8A40DEF02F00FEFE6
:1004180002F006EF02F0776AE10E706E1B0E716E45
:10042800030E726E0D01D46B1F0E6F166F50606A4B
:100438001200956A9450F80B946E8290000E016E2B
:10044800020EC7EC01F0000E016E380EC7EC01F089
:10045800000E016E0C0EC7EC01F0000E016E010ECD
:10046800C7EC01F012001DEC02F001EC02F04AECBE
:1004780002F093508009936E93909392939C939E6D
:10048800816AF28CF28E65EC02F01200948E949CD4
:10049800AC9CAC8AAC98AC96AC84AB8EAB9CAB886D
:1004A800B896810EAF6E9E989E9A12001F6A1E6AB9
:1004B8001D6A1C6A20902092000EF86E000109EF58
:1004C80000F0D58CD59AD58ED586000ED76E060E3F
:0804D800D66EF294F28A1200C4
:102FE40000535020204752202052504D2020494465
:0B2FF400003C2D002D3E004F46000069
:020000040020DA
:08000000FFFFFFFFFFFFFFFF00
:020000040030CA
:0E000000FF071F1FFF8285FF0FC00FE00F409C
:00000001FF
