:020000040000FA
:0400000007EF00F016
:0A0008005F8298ED08F061EF0BF045
:1006000000002B50800B346E2B502B243A6E2AAEF8
:100610000CEF03F00EEF03F00FEF03F03A803A50C7
:10062000D8B415EF03F017EF03F02AEF03F03A28E0
:10063000D8A41DEF03F01FEF03F027EF03F0000E27
:10064000286E000E296E000E2A6E000E2B6E2A8E6A
:1006500032EF03F0000E286E000E296E000E2A6E97
:10066000000E2B6E2F50800B341A2F502F24396E12
:100670002EAE3DEF03F03FEF03F040EF03F0398083
:100680003950D8B446EF03F048EF03F05BEF03F0C6
:100690003928D8A44EEF03F050EF03F058EF03F0E1
:1006A000000E2C6E000E2D6E000E2E6E000E2F6EA4
:1006B0002E8E63EF03F0000E2C6E000E2D6E000EDA
:1006C0002E6E000E2F6E3950D8B469EF03F06BEF29
:1006D00003F073EF03F03A50D8A471EF03F073EF17
:1006E00003F07DEF03F0000E286E000E296E000E61
:1006F0002A6E000E2B6E13EF05F02E502802F3CF5A
:100700003FF0F4CF40F03F50356E366A376A386AB2
:1007100040503B6E3C6A3D6A3E6A2D502902F3CF41
:100720003FF0F4CF40F03F503526000E36223722FE
:10073000382240503B26000E3C223D223E222C50C7
:100740002A02F3CF3FF0F4CF40F03F503526000EA1
:1007500036223722382240503B26000E3C223D22D2
:100760003E2237C038F036C037F035C036F0356A33
:100770002C502902F3CF3FF0F4CF40F03F50352604
:1007800040503622000E3722000E38222D5028020B
:10079000F3CF3FF0F4CF40F03F50352640503622A3
:1007A000000E3722000E382237C038F036C037F03E
:1007B00035C036F0356A2C502802F3CF3FF0F4CF25
:1007C00040F03F50352640503622000E3722000EB2
:1007D00038222E502902F3CF3FF0F4CF40F03F50A3
:1007E0003B2640503C22000E3D22000E3E222D5062
:1007F0002A02F3CF3FF0F4CF40F03F503B26405069
:100800003C22000E3D22000E3E222E502A02F3CF43
:100810003FF0F4CF40F03F50306E4050316E326ABE
:10082000336A32C033F031C032F030C031F0306A58
:1008300030503B2631503C2232503D2233503E2234
:1008400035C030F036C031F037C032F038C033F048
:10085000190E30EF04F0D890333232323132303268
:10086000E82E2BEF04F030503B2631503C22325022
:100870003D2233503E2237C038F036C037F035C005
:1008800036F0356A39503AC030F0316A3026000E01
:100890003122820E30243F6EFF0E3120406E66EF13
:1008A00004F0D8903B363C363D363E3638AE5BEFF2
:1008B00004F05DEF04F05EEF04F03B80D890353635
:1008C0003636373638363F06D8A040063DAE6BEF99
:1008D00004F06DEF04F051EF04F0396A38AE73EFB5
:1008E00004F075EF04F099EF04F0FF0E3514306E4C
:1008F000FF0E3614316EFF0E3714326E7F0E381431
:10090000336E3050311032103310D8B48AEF04F007
:100910008CEF04F090EF04F0010E396E99EF04F0C3
:100920003BA095EF04F097EF04F099EF04F08CEF03
:1009300004F03950D8B49FEF04F0A1EF04F0C5EFF4
:1009400004F0010E3B26000E3C223D223E223EA03A
:10095000ACEF04F0AEEF04F0C5EF04F03BC030F0B4
:100960003CC031F03DC032F03EC033F0333433325E
:1009700032323132303230C03BF031C03CF032C024
:100980003DF033C03EF03F4A402A40BED0EF04F075
:10099000405008E13F28D8A0D0EF04F0D2EF04F097
:1009A000DCEF04F0000E3B6E000E3C6E800E3D6EE0
:1009B0007F0E3E6E09EF05F040BEE9EF04F04050B7
:1009C00006E13F04D8B0E7EF04F0E9EF04F0F4EFFC
:1009D00004F0000E3B6E000E3C6E000E3D6E000EED
:1009E0003E6E346A09EF05F03FC03AF0FF0E3B1649
:1009F000FF0E3C167F0E3D16000E3E163AA003EF8A
:100A000005F005EF05F006EF05F03D8ED8903A3081
:100A10003E6E34503E123BC028F03CC029F03DC031
:100A20002AF03EC02BF012001250800B1F6E1250A5
:100A30001224266E11AE1FEF05F021EF05F022EF14
:100A400005F026802650D8B428EF05F02AEF05F0EF
:100A50003EEF05F02628D8A430EF05F032EF05F080
:100A60003AEF05F0000E0F6E000E106E000E116EC4
:100A7000000E126E118E126A46EF05F0000E0F6E18
:100A8000000E106E000E116E000E126E1650800BCE
:100A90001F1A16501624276E15AE51EF05F053EFAE
:100AA00005F054EF05F027802750D8B45AEF05F031
:100AB0005CEF05F070EF05F02728D8A462EF05F091
:100AC00064EF05F06CEF05F0000E136E000E146E6F
:100AD000000E156E000E166E158E166A78EF05F074
:100AE000000E136E000E146E000E156E000E166EC4
:100AF0001350141015101610D8A481EF05F083EFD1
:100B000005F09BEF05F0000E0F6E000E106E000E4C
:100B1000116E000E126E800E11127F0E12121F50F7
:100B200012120FC00FF010C010F011C011F012C05F
:100B300012F0DBEF06F02650D8A4A1EF05F0A3EFEA
:100B400005F0ADEF05F0000E0F6E000E106E000EFA
:100B5000116E000E126EDBEF06F0275026C017F064
:100B6000186A175E000E185A7F0E1724206E000EAA
:100B70001820216E0FC01BF010C01CF011C01DF01A
:100B800012C01EF0000E0F6E000E106E000E116EE1
:100B9000000E126E000E226E000E236E000E246EEA
:100BA000000E256E276A0DEF06F02750D8B4DBEF54
:100BB00005F0DDEF05F0F4EF05F0D8901B361C369C
:100BC0001D361E36D8900F3610361136123625AE29
:100BD000ECEF05F0EEEF05F0EFEF05F00F80D890A9
:100BE000223623362436253613501B5C14501C58ED
:100BF00015501D5816501E58D8A001EF06F003EFEF
:100C000006F00CEF06F0258C13501B5E14501C5A96
:100C100015501D5A16501E5A272A190E276413EF15
:100C200006F015EF06F0D5EF05F01B501C101D1057
:100C30001E10D8B41EEF06F020EF06F038EF06F0D5
:100C4000228038EF06F0D8900F3610361136123663
:100C500025AE2DEF06F02FEF06F030EF06F00F80F7
:100C6000D89022362336243625362006D8A02106F1
:100C700011AE3DEF06F03FEF06F023EF06F0276AD6
:100C800025AE45EF06F047EF06F06BEF06F0FF0EDE
:100C90002214176EFF0E2314186EFF0E2414196E03
:100CA0007F0E25141A6E1750181019101A10D8B488
:100CB0005CEF06F05EEF06F062EF06F0010E276EC5
:100CC0006BEF06F00FA067EF06F069EF06F06BEF31
:100CD00006F05EEF06F02750D8B471EF06F073EF20
:100CE00006F097EF06F0010E0F26000E10221122DB
:100CF000122212A07EEF06F080EF06F097EF06F0CA
:100D00000FC017F010C018F011C019F012C01AF07F
:100D10001A341A3219321832173217C00FF018C0AD
:100D200010F019C011F01AC012F0204A212A21BE79
:100D3000A2EF06F0215008E12028D8A0A2EF06F08B
:100D4000A4EF06F0AFEF06F0000E216E2068000E53
:100D50000F6E000E106E000E116E000E126E21BE90
:100D6000BCEF06F0215006E12004D8B0BAEF06F03F
:100D7000BCEF06F0C9EF06F0000E216E000E206EEB
:100D8000000E0F6E000E106E000E116E000E126E31
:100D90001F6A20C026F026A0D0EF06F0D2EF06F0A2
:100DA000D5EF06F0118ED6EF06F0119ED8902630C2
:100DB000126E8FEF05F01200000E556E000E566E8B
:100DC000000E576E000E586E040E02EC0BF001C0C0
:100DD0004DF002C04EF04F6A506A000E2C6E000EAD
:100DE0002D6E700E2E6E420E2F6E140E136EAE0E02
:100DF000146E230E156E410E166E4DC001F04EC0DE
:100E000002F04FC003F050C004F0000EBEEC07F03B
:100E100001C00FF002C010F003C011F004C012F0C6
:100E200014EC05F00FC028F010C029F011C02AF012
:100E300012C02BF001EC03F028C041F029C042F0B1
:100E40002AC043F02BC044F025EC09F041C055F016
:100E500042C056F043C057F044C058F055C001F0AE
:100E600056C002F057C003F058C004F0E80E056EFB
:100E7000030E066E000E076E000E086EA8EC09F059
:100E80000150300F516E640E056E000E066E000E9E
:100E9000076E000E086E55C001F056C002F057C034
:100EA00003F058C004F0A8EC09F001C00EF002C035
:100EB0000FF003C010F004C011F00A0E126E000E05
:100EC000136E000E146E000E156E4AEC0AF00E50F2
:100ED000300F526E0A0E056E000E066E000E076E83
:100EE000000E086E55C001F056C002F057C003F066
:100EF00058C004F0A8EC09F001C00EF002C00FF0D9
:100F000003C010F004C011F00A0E126E000E136E32
:100F1000000E146E000E156E4AEC0AF00E50300FE3
:100F2000536E55C00EF056C00FF057C010F058C0A9
:100F300011F00A0E126E000E136E000E146E000EEB
:100F4000156E4AEC0AF00E50300F546E556A000EC2
:100F5000066E300E056E510E076E040E086ECAEC5A
:100F60000AF0030E4C6E080E4B6E770EE82EFED77D
:100F70004B2EFCD74C2EFAD700001200096E0950F8
:100F8000D8B4C5EF07F0C7EF07F0E9EF07F004BEEC
:100F9000CEEF07F0CCEF07F0E9EF07F001C005F066
:100FA00002C006F003C007F004C008F0051E061ECC
:100FB000071E081E052A000E06220722082205C069
:100FC0000BF006C00CF007C00DF008C00EF0F1EFFA
:100FD00007F001C00BF002C00CF003C00DF004C01C
:100FE0000EF00150021003100410D8A4FAEF07F01D
:100FF000FCEF07F006EF08F0000E016E000E026E27
:10100000000E036E000E046E97EF08F0960E0A6E47
:1010100010EF08F00A2AD8900E320D320C320B3243
:10102000000E0B14056E000E0C14066E000E0D144F
:10103000076EFE0E0E14086E0550061007100810FD
:10104000D8A425EF08F027EF08F00AEF08F035EFF5
:1010500008F00A2A010E0B26000E0C220D220E2289
:10106000D8900E320D320C320B32000E0B14056E7E
:10107000000E0C14066E000E0D14076EFF0E0E14FB
:10108000086E0550061007100810D8A44AEF08F0A3
:101090004CEF08F029EF08F054EF08F00A06D8905A
:1010A0000B360C360D360E360DBE59EF08F05BEFE1
:1010B00008F063EF08F0020E0A6061EF08F063EFDA
:1010C00008F04EEF08F00AB068EF08F06AEF08F099
:1010D0006BEF08F00D9ED8900A320AC005F0066A40
:1010E000076A086A05C008F0076A066A056A0550BB
:1010F0000B1206500C1207500D1208500E12095018
:10110000D8B485EF08F087EF08F08FEF08F004BE41
:101110008EEF08F08CEF08F08FEF08F00E8E0BC00A
:1011200001F00CC002F00DC003F00EC004F012007C
:101130000600F2A49EEF08F0A0EF08F023EF09F0FC
:10114000080ED624D66E000ED720D76E5D4A5E2AD2
:10115000000162056311D8A4B0EF08F0B2EF08F007
:10116000E3EF08F0110E5D5C270E5E58D8B0BBEFC0
:1011700008F0BDEF08F0C1EF08F08190819222EFF6
:1011800009F0210E5D5C4E0E5E58D8B0CAEF08F033
:10119000CCEF08F0D0EF08F08180818222EF09F0D7
:1011A000210E5D5C4E0E5E58D8A0D9EF08F0DBEF43
:1011B00008F022EF09F0000E5E6E000E5D6E22EF69
:1011C00009F022EF09F0020E62196311D8A4EBEFC7
:1011D00008F0EDEF08F018EF09F0110E5D5C270E36
:1011E0005E58D8B0F6EF08F0F8EF08F0FCEF08F022
:1011F000819C819E22EF09F0210E5D5C4E0E5E58AF
:10120000D8B005EF09F007EF09F00BEF09F0818C7A
:10121000818E22EF09F0210E5D5C4E0E5E58D8A043
:1012200014EF09F016EF09F0E1EF08F0DBEF08F03A
:1012300062516311D8A41FEF09F021EF09F022EFEA
:1012400009F0816AF2945F921100433444344A6E8B
:101250004A50D8A42EEF09F030EF09F03AEF09F028
:10126000000E416E000E426E000E436E000E446E84
:10127000A7EF09F041C045F042C046F043C047F037
:1012800044C048F0200E4AEF09F0D8904832473267
:1012900046324532E82E45EF09F04550496E438EFF
:1012A000FF0E4116FF0E4216FF0E4316000E4416A7
:1012B000960E4A5E4ABE61EF09F05FEF09F077EFE4
:1012C00009F04A50800A970FD8B069EF09F06BEF28
:1012D00009F06DEF09F030EF09F0D8904432433255
:1012E000423241324A3E6DEF09F08FEF09F01F0E96
:1012F0004A647DEF09F07FEF09F087EF09F030EFE6
:1013000009F0D89041364236433644364A064A50B0
:10131000D8A48DEF09F08FEF09F081EF09F0495063
:10132000D8B495EF09F097EF09F09FEF09F0441E4C
:10133000431E421E416C000E42224322442241C001
:1013400041F042C042F043C043F044C044F01200B8
:10135000000E096E000E0A6E000E0B6E000E0C6E73
:101360000550061007100810D8B4B9EF09F0BBEF0C
:1013700009F0F1EF09F0010E0D6EC5EF09F0D890FC
:1013800005360636073608360D2A08AECAEF09F0CC
:10139000CCEF09F0BFEF09F0D89009360A360B36CA
:1013A0000C360550015C065002580750035808508F
:1013B0000458D8A0DEEF09F0E0EF09F0E9EF09F0FA
:1013C0000550015E0650025A0750035A0850045A4D
:1013D0000980D89008320732063205320D2ECCEF44
:1013E00009F009C001F00AC002F00BC003F00CC004
:1013F00004F0120086EC0BF0A1EC0BF094EC0BF077
:1014000076EC0BF093508009936E25EC0BF0816A1B
:10141000DCEC06F0010E8EEC0AF05B6E0E0E5B1833
:10142000D8A415EF0AF017EF0AF019EF0AF0310E01
:101430005C6E0B0E5B18D8A420EF0AF022EF0AF0C6
:1014400024EF0AF0320E5C6E0D0E5B18D8A42BEF61
:101450000AF02DEF0AF02FEF0AF0300E5C6E5D6A95
:10146000000E066E500E056E5C0E076E010E086EC5
:10147000CAEC0AF0030E5A6E080E596E770EE82E6B
:10148000FED7592EFCD75A2EFAD7000008EF0AF0E3
:1014900007EF00F01250131014101510D8B453EFCA
:1014A0000AF055EF0AF085EF0AF0010E166E5FEFB5
:1014B0000AF0D8901236133614361536162A15AEA1
:1014C00064EF0AF066EF0AF059EF0AF012500E5C72
:1014D00013500F581450105815501158D8A073EFCE
:1014E0000AF075EF0AF07DEF0AF012500E5E13500D
:1014F0000F5A1450105A1550115AD89015321432F0
:1015000013321232162E66EF0AF00EC00EF00FC024
:101510000FF010C010F011C011F01200016E0104A4
:10152000D8A495EF0AF097EF0AF0BEEF0AF08250C8
:101530000F0B0F0AD8B49FEF0AF0A1EF0AF0AFEF3C
:101540000AF000016451D8B4A8EF0AF0AAEF0AF03B
:10155000AFEF0AF0646B82500F0BC9EF0AF08250B4
:101560000F0B0F0AD8A4B7EF0AF0B9EF0AF0C8EFD3
:101570000AF0010E0001646FC8EF0AF00150D8A410
:10158000C4EF0AF0C6EF0AF0C8EF0AF0ABEF0AF0BA
:10159000FF0E12000F01436B446B05C001F006C043
:1015A00002F043EC0BF008C045FF460E0C6E0F0E28
:1015B0000D6E000E0F6E000E0E6EEDEF0AF007506E
:1015C0000E24D96EDA6A0E500C24E16E0F500D20F5
:1015D000E26EDFCFE7FF0E4A0F2A0850096E0A6A53
:1015E00009500E5C0F50800A0B6E0A50800A0B588F
:1015F000D8A0FDEF0AF0FFEF0AF0DFEF0AF00F01CD
:1016000040871200076E07C003F0D8900336D890C9
:101610000336C250C30B0310C26EC282C2B213EFB4
:101620000BF015EF0BF00EEF0BF0C350C4CF03F02F
:10163000046A03C004F0036A0310056E0450066ECA
:1016400005C001F006C002F01200939493861F0EAD
:101650006F166F8E800E6E18D8A431EF0BF033EF3B
:101660000BF02AEF0BF0776AE10E706E1B0E716EB5
:10167000030E726E0D01D46B1F0E6F166F50606AF1
:10168000608A608C120001C003F0070E0316050E7D
:10169000046ED8900336042E49EF0BF003500F016F
:1016A000426F01C003F002C004F0D890043203324C
:1016B000D89004320332D890043203320350416F81
:1016C00012004A0EF66E170EF76E000EF86E090045
:1016D000F5CF64F00001636B626B616B606B5E6AF7
:1016E0005D6A5F905F920001FAEF09F0948E949C1E
:1016F000AC9CAC8AAC98AC96AC84AB8EAB9CAB8803
:10170000B896810EAF6E9E989E9A1200C08EC09AB7
:10171000C088C096C090C082C094C292C19AC1983D
:10172000C46AC36AC2801200D58CD59AD58ED5867C
:10173000000ED76E060ED66EF294F28AF28EF28CFE
:0B174000120094500F09946E1200017B
:020000040020DA
:08000000FFFFFFFFFFFFFFFF00
:020000040030CA
:0E000000FF071F1FFF8285FF0FC00FE00F409C
:00000001FF
